:020000040800F2
:1000000000000220D91C0008051100080911000891
:100010000D11000811110008151100080000000062
:10002000000000000000000000000000191100089E
:100030001D11000800000000211100082511000812
:10004000291D0008291D0008291D0008291D000878
:10005000291D0008291D0008291D0008291D000868
:10006000291D0008291D0008291D0008291D000858
:10007000291D0008291D0008291D0008291D000848
:10008000291D0008291D0008291D0008291D000838
:10009000291D0008291D0008291D0008291D000828
:1000A000291D0008291D0008291D0008291D000818
:1000B000291D0008291D0008291D0008291D000808
:1000C000291D0008291D0008291D0008291D0008F8
:1000D000291D0008291D0008291D0008291D0008E8
:1000E000291D0008291D0008291D0008291D0008D8
:1000F000291D0008291D0008291D0008291D0008C8
:10010000291D0008291D0008291D0008291D0008B7
:10011000291D0008291D0008291D0008291D0008A7
:10012000291D0008291D0008291D0008291D000897
:10013000291D00080000000000000000291D000823
:10014000291D0008291D0008291D0008291D000877
:10015000291D0008291D0008291D0008291D000867
:10016000291D0008291D0008291D0008291D000857
:10017000291D0008291D0008291D00080000000095
:1001800000000000291D0008000000000000000021
:10019000291D00080000000000000000291D0008C3
:1001A000000000000000000000000000291D000801
:1001B000291D0008291D0008291D0008291D000807
:0401C000291D0008ED
:1001C40010B5054C237833B9044B13B10448AFF38D
:1001D40000800123237010BD2800002000000000CF
:1001E400741D000808B5034B1BB103490348AFF362
:1001F400008008BD000000002C000020741D0008D1
:1002040081F0004102E000BF83F0004330B54FEAC3
:1002140041044FEA430594EA050F08BF90EA020F30
:100224001FBF54EA000C55EA020C7FEA645C7FEAC3
:10023400655C00F0E2804FEA5454D4EB5555B8BFE6
:100244006D420CDD2C4480EA020281EA030382EA57
:10025400000083EA010180EA020281EA0303362DE9
:1002640088BF30BD11F0004F4FEA01314FF4801CBC
:100274004CEA113102D0404261EB410113F0004FCE
:100284004FEA03334CEA133302D0524263EB430385
:1002940094EA050F00F0A780A4F10104D5F1200E23
:1002A4000DDB02FA0EFC22FA05F2801841F100017E
:1002B40003FA0EF2801843FA05F359410EE0A5F152
:1002C40020050EF1200E012A03FA0EFC28BF4CF083
:1002D400020C43FA05F3C01851EBE37101F0004539
:1002E40007D54FF0000EDCF1000C7EEB00006EEB46
:1002F4000101B1F5801F1BD3B1F5001F0CD34908D0
:100304005FEA30004FEA3C0C04F101044FEA445226
:1003140012F5800F80F09A80BCF1004F08BF5FEAAD
:10032400500C50F1000041EB045141EA050130BD8D
:100334005FEA4C0C404141EB0101013C28BFB1F59F
:10034400801FE9D291F0000F04BF01460020B1FAEA
:1003540081F308BF2033A3F10B03B3F120020CDABD
:100364000C3208DD02F1140CC2F10C0201FA0CF09B
:1003740021FA02F10CE002F11402D8BFC2F1200C00
:1003840001FA02F120FA0CFCDCBF41EA0C019040B6
:10039400E41AA2BF01EB0451294330BD6FEA0404FF
:1003A4001F3C1CDA0C340EDC04F11404C4F12002EA
:1003B40020FA04F001FA02F340EA030021FA04F3FC
:1003C40045EA030130BDC4F10C04C4F1200220FA53
:1003D40002F001FA04F340EA0300294630BD21FA91
:1003E40004F0294630BD94F0000F83F4801306BF57
:1003F40081F480110134013D4EE77FEA645C18BF4B
:100404007FEA655C29D094EA050F08BF90EA020FE1
:1004140005D054EA000C04BF1946104630BD91EAD9
:10042400030F1EBF0021002030BD5FEA545C05D1DC
:100434004000494128BF41F0004130BD14F580041B
:100444003CBF01F5801130BD01F0004545F0FE418F
:1004540041F470014FF0000030BD7FEA645C1ABFC4
:10046400194610467FEA655C1CBF0B46024650EAFB
:10047400013406BF52EA033591EA030F41F4002127
:1004840030BD00BF90F0000F04BF0021704730B5AD
:100494004FF4806404F132044FF000054FF0000182
:1004A40050E700BF90F0000F04BF0021704730B543
:1004B4004FF4806404F1320410F0004548BF404218
:1004C4004FF000013EE700BF42004FEAE2014FEA6D
:1004D40031014FEA02701FBF12F07F4393F07F4F48
:1004E40081F06051704732F07F4208BF704793F04B
:1004F4007F4F04BF41F40021704730B54FF460745E
:1005040001F0004521F000411CE700BF50EA010260
:1005140008BF704730B54FF000050AE050EA010209
:1005240008BF704730B511F0004502D5404261EB79
:1005340041014FF4806404F132045FEA915C3FF4BA
:10054400D8AE4FF003025FEADC0C18BF03325FEA57
:10055400DC0C18BF033202EBDC02C2F1200300FA08
:1005640003FC20FA02F001FA03FE40EA0E0021FA2D
:1005740002F11444BDE600BF70B54FF0FF0C4CF41B
:10058400E06C1CEA11541DBF1CEA135594EA0C0FCD
:1005940095EA0C0F00F0DEF82C4481EA030621EA08
:1005A4004C5123EA4C5350EA013518BF52EA033543
:1005B40041F4801143F4801338D0A0FB02CE4FF0F5
:1005C4000005E1FB02E506F00042E0FB03E54FF025
:1005D4000006E1FB03569CF0000F18BF4EF0010E1D
:1005E400A4F1FF04B6F5007F64F5407404D25FEA19
:1005F4004E0E6D4146EB060642EAC62141EA5551CC
:100604004FEAC52040EA5E504FEACE2EB4F1FD0C0D
:1006140088BFBCF5E06F1ED8BEF1004F08BF5FEA8B
:10062400500E50F1000041EB045170BD06F000463D
:1006340046EA010140EA020081EA0301B4EB5C04EA
:10064400C2BFD4EB0C0541EA045170BD41F48011E2
:100654004FF0000E013C00F3AB8014F1360FDEBF07
:10066400002001F0004170BDC4F10004203C35DAE3
:100674000C341BDC04F11404C4F1200500FA05F366
:1006840020FA04F001FA05F240EA020001F0004207
:1006940021F0004110EBD37021FA04F642EB06017D
:1006A4005EEA430E08BF20EAD37070BDC4F10C04A7
:1006B400C4F1200500FA04F320FA05F001FA04F26B
:1006C40040EA020001F0004110EBD37041F1000157
:1006D4005EEA430E08BF20EAD37070BDC4F1200562
:1006E40000FA05F24EEA020E20FA04F301FA05F2CA
:1006F40043EA020321FA04F001F0004121FA04F272
:1007040020EA020000EBD3705EEA430E08BF20EA41
:10071400D37070BD94F0000F0FD101F0004640007B
:1007240041EB010111F4801F08BF013CF7D041EAFD
:10073400060195F0000F18BF704703F00046520001
:1007440043EB030313F4801F08BF013DF7D043EAD2
:100754000603704794EA0C0F0CEA135518BF95EA88
:100764000C0F0CD050EA410618BF52EA4306D1D10F
:1007740081EA030101F000414FF0000070BD50EA2E
:10078400410606BF1046194652EA430619D094EAB8
:100794000C0F02D150EA013613D195EA0C0F05D1A2
:1007A40052EA03361CBF104619460AD181EA0301F6
:1007B40001F0004141F0FE4141F470014FF00000AE
:1007C40070BD41F0FE4141F4780170BD70B54FF049
:1007D400FF0C4CF4E06C1CEA11541DBF1CEA1355C9
:1007E40094EA0C0F95EA0C0F00F0A7F8A4EB0504AB
:1007F40081EA030E52EA03354FEA013100F08880A2
:100804004FEA03334FF0805545EA131343EA12636A
:100814004FEA022245EA111545EA10654FEA00261F
:100824000EF000419D4208BF964244F1FD0404F5D8
:10083400407402D25B084FEA3202B61A65EB030534
:100844005B084FEA32024FF480104FF4002CB6EBF1
:10085400020E75EB030E22BFB61A754640EA0C0071
:100864005B084FEA3202B6EB020E75EB030E22BFB1
:10087400B61A754640EA5C005B084FEA3202B6EBF2
:10088400020E75EB030E22BFB61A754640EA9C00B1
:100894005B084FEA3202B6EB020E75EB030E22BF81
:1008A400B61A754640EADC0055EA060E18D04FEA3F
:1008B400051545EA16754FEA06164FEAC30343EADF
:1008C40052734FEAC2025FEA1C1CC0D111F4801FAC
:1008D4000BD141EA00014FF000004FF0004CB6E7A5
:1008E40011F4801F04BF01430020B4F1FD0C88BF44
:1008F400BCF5E06F3FF6AFAEB5EB030C04BFB6EB4F
:10090400020C5FEA500C50F1000041EB045170BD41
:100914000EF0004E4EEA113114EB5C04C2BFD4EB6E
:100924000C0541EA045170BD41F480114FF0000EF2
:10093400013C90E645EA060E8DE60CEA135594EA6E
:100944000C0F08BF95EA0C0F3FF43BAF94EA0C0F71
:100954000AD150EA01347FF434AF95EA0C0F7FF4E6
:1009640025AF104619462CE795EA0C0F06D152EA3A
:1009740003353FF4FDAE1046194622E750EA41061E
:1009840018BF52EA43067FF4C5AE50EA41047FF42F
:100994000DAF52EA43057FF4EBAE12E74FF0FF3C94
:1009A40006E000BF4FF0010C02E000BF4FF0010C65
:1009B4004DF804CD4FEA410C7FEA6C5C4FEA430CDE
:1009C40018BF7FEA6C5C1BD001B050EA410C0CBF2D
:1009D40052EA430C91EA030F02BF90EA020F00208F
:1009E400704710F1000F91EA030F58BF994208BFF6
:1009F40090422CBFD8176FEAE37040F001007047B3
:100A04004FEA410C7FEA6C5C02D150EA013C07D109
:100A14004FEA430C7FEA6C5CD6D152EA033CD3D054
:100A24005DF8040B704700BF8446104662468C464E
:100A34001946634600E000BF01B5FFF7B7FF002881
:100A440048BF10F1000F01BD4DF808EDFFF7F4FFAA
:100A54000CBF012000205DF808FB00BF4DF808ED35
:100A6400FFF7EAFF34BF012000205DF808FB00BF58
:100A74004DF808EDFFF7E0FF94BF012000205DF87A
:100A840008FB00BF4DF808EDFFF7CEFF94BF01202F
:100A940000205DF808FB00BF4DF808EDFFF7C4FF28
:100AA40034BF012000205DF808FB00BF53B94AB9E8
:100AB400002908BF00281CBF4FF0FF314FF0FF3062
:100AC40000F088B9ADF1080C6DE904CE00F006F829
:100AD400DDF804E0DDE9022304B070472DE9F047B6
:100AE400089D8E4604468846002B4AD18A42174602
:100AF40062D9B2FA82F64EB1C6F1200301FA06F8C1
:100B040020FA03F3B74043EA0808B4404FEA174E0B
:100B14001FFA87FCB8FBFEF1230C0EFB118843EA95
:100B2400084301FB0CF29A4209D9FB1801F1FF308A
:100B340080F0EA809A4240F2E78002393B449A1AF4
:100B4400A3B2B2FBFEF00EFB102243EA024300FB09
:100B54000CFC9C4509D9FB1800F1FF3280F0D680CB
:100B64009C4540F2D3803B44023840EA0140A3EB69
:100B74000C0300211DB1F3400022C5E90032BDE899
:100B8400F0878B4205D90DB1C5E900010021084663
:100B9400F5E7B3FA83F1002946D1734502D38242C3
:100BA40000F20581841A6EEB030201209046002DA9
:100BB400E5D0C5E90048E2E7002A00F09080B2FAE7
:100BC40082F6002E40F0A4808A1A030C4FEA174ED6
:100BD40080B2BCB20121B2FBFEFC0EFB1C2243EA34
:100BE400024304FB0CF29A4207D9FB180CF1FF38BC
:100BF40002D29A4200F2E080C4469B1AB3FBFEF292
:100C04000EFB123340EA034302FB04F49C4207D96F
:100C1400FB1802F1FF3002D29C4200F2CA80024665
:100C24001B1B42EA0C40A5E7C1F120068B4022FAC7
:100C340006F71F430EFA01F420FA06F32EFA06FE15
:100C44004FEA1749234300FA01F81FFA87FCBEFB59
:100C5400F9F01C0C09FB10EE44EA0E4400FB0CFEF8
:100C6400A64502FA01F209D93C1900F1FF3A80F0D5
:100C74009C80A64540F2998002383C44A4EB0E04C3
:100C84001FFA83FEB4FBF9F309FB13444EEA044450
:100C940003FB0CFCA44508D93C1903F1FF3E80F08A
:100CA4008280A4457FD9023B3C4443EA0040A4EB44
:100CB4000C04A0FB02EC64457346E14662D35FD0AA
:100CC4005DB1B8EB030264EB090404FA06F622FAF8
:100CD40001F31E43CC40C5E9006400214FE7B1FB9A
:100CE400F2FC010C41EA0E4180B240EA01423B466B
:100CF40038463C46B846BE462026B1FBF7F1A2EB87
:100D0400080241EA0C4166E7014618E710462CE761
:100D1400C6F120022EFA02F3B740B14020FA02F2E3
:100D24004FEA174E0A43B3FBFEF8BCB20EFB18336E
:100D3400110C41EA034108FB04F9B04089454FEA2C
:100D4400104380B23ED9791808F1FF3C01D289459D
:100D54001FD8A1EB0901B1FBFEF909FB04F80EFB56
:100D6400191192B242EA0142424529D2BA1809F154
:100D7400FF31C4D24245C2D2A9F102013A44BEE7CE
:100D8400F0459DD2BEEB02036CEB070C0138E14643
:100D940096E7A7EB09094944A8F1020CB1FBFEF957
:100DA40009FB04F8DBE773467FE7504666E708462D
:100DB400FDE63B44023A33E7ACF1020C3B441CE74A
:100DC40049469CE7A1EB0901C446B1FBFEF909FBC6
:100DD40004F8C4E7704700BF70B5002396B0CDE9AE
:100DE4000A33CDE90C33CDE90333CDE90533224988
:100DF40001930793086C214A40F080500864096C01
:100E040001F08051019101990293136823F4404346
:100E140043F480431360136803F440430224012025
:100E24004FF4803102934FF4800290230F25CDE9D3
:100E34000801CDE90E42CDE910530222022308A88D
:100E4400CDE912230299149400F07CFA08B172B629
:100E5400FEE703464FF4A0564FF4805203A8032143
:100E6400CDE90354CDE90536079200F077F908B1CE
:100E740072B6FEE716B070BD003802400070004044
:100E84002DE9F04F99B000F0E5FEFFF7A5FF002231
:100E9400CDE91222CDE914228C4B0F921692196BD4
:100EA4008B4841F004011963196B01F004010F919F
:100EB4000F991092196B41F080011963196B01F0BD
:100EC4008001109110991192196B41F0020119637C
:100ED4001B6B03F002031193FF21119BFF2400F00D
:100EE4002BFE012500220023794812A9CDE91245E1
:100EF400CDE9142300F02AFC01221146744800F0C5
:100F04001BFE744A13680BB901231360724D7048B9
:100F14000122114600F010FE00F0C2FE6F4B186073
:100F240055F8043B0C93002B40F3CB801846FFF795
:100F3400B9FA4FF00008CDE90A01CDE90688474621
:100F44002C463846FFF7AEFA02460B46FFF75EF929
:100F5400DDE90A23FFF73AFC614B0022FFF754F95D
:100F6400CDE908014FF0000ACDF804A00D97A14681
:100F74000198FFF797FA5B4B0022FFF7FDFADDE9D2
:100F84000A23FFF723FC584B0022FFF73DF9002604
:100F94000027CDE904014FF0000834463D4622E025
:100FA40022462B4620462946FFF730F932463B4677
:100FB400FFF7E2FA02460B46DDE90801FFF726F9DE
:100FC400DDE9022306460F4650465946FFF71CF951
:100FD400DDE90423FFF71AF908F10108B8F1640FF9
:100FE40004460D466BD022462B4620462946FFF781
:100FF400C3FA324682468B463B4630463946FFF7B3
:10100400BBFA02460B4650465946CDE90223FFF788
:10101400FDF8364B0022FFF72BFD0028C0D14FEA24
:10102400E872069B079918EB030342EB010207924F
:10103400019A06930C9B01329342019298D10D9F21
:101044000137BB424C467FF47CAF4D46DDE906894F
:10105400274BC3E9008900F023FE264A10601F4A8B
:101064001268831A244A1A4813600221012200F0EC
:1010740063FD4FF47A7000F019FE15480022012137
:1010840000F05AFD12480022022100F055FD1B4BCE
:10109400AB427FF43CAF012202210D4800F04CFD2D
:1010A4004FF4FA6000F002FE09480022012100F02A
:1010B40043FD07480022022100F03EFD1CE7002208
:1010C400AFE74FF00008C146C2E700BF0038024056
:1010D40000040240140000200000002058000020FA
:1010E4000000F03F00000C400000044000001040ED
:1010F400480000205400002050000020140000206C
:10110400FEE700BFFEE700BFFEE700BFFEE700BF4B
:10111400FEE700BF704700BF704700BF704700BFC5
:1011240000F0B2BD82B00C4B002100915A6C42F425
:1011340080425A645A6C02F480420092009A0191EF
:101144001A6C42F080521A641B6C03F080530193B2
:10115400019B02B0704700BF00380240002800F035
:101164008780484A136803F00F038B422DE9F0414E
:101174000D46044609D2CBB21370136803F00F0373
:101184008B4202D00120BDE8F0812368980714D572
:10119400590704D53C498A6842F4E0528A601A0728
:1011A40004D539498A6842F460428A603649A068A5
:1011B4008A6822F0F00202438A60DF0721D5626860
:1011C400012A57D0931E012B2F4B1B684DD9990729
:1011D400D8D52D4EB36823F003031343B36000F056
:1011E4005FFD41F28838074604E000F059FDC01B5A
:1011F400404544D8B368626803F00C03B3EB820F34
:10120400F3D1204A136803F00F03AB4206D9EBB2C3
:101214001370136803F00F03AB42B3D123685A076A
:1012240006D51949E0688A6822F4E05202438A60CC
:101234001B0707D5144A2169936823F4604343EAE2
:10124400C103936000F028F80F4A104C92681049CB
:10125400C2F303120346A25C0E48D34000680B603D
:1012640000F0D4FC0020BDE8F0819801B1D489E7F6
:1012740001207047044B1B689E03AAD482E7032015
:1012840081E700BF003C0240003802408C1D00088A
:10129400200000201C000020274908B58B6803F0BB
:1012A4000C03082B1DD00C2B05D0244A2448042BF6
:1012B40018BF104608BD4A684B68496813F4800398
:1012C40002F03F022ED11D48C1F38811A1FB000199
:1012D400FFF7ECFB184B5B68C3F30273B0FBF3F04E
:1012E40008BD4A684B68496813F4800302F03F0262
:1012F4000FD11248C1F38811A1FB0001FFF7D6FBFF
:101304000D4B5B68C3F3014301335B00B0FBF3F0A7
:1013140008BD0B48C1F388110023A1FB0001FFF7AE
:10132400C5FBEDE70648C1F388110023A1FB0001CA
:10133400FFF7BCFBCEE700BF003802400024F400F6
:1013440040787D01002800F0FB812DE9F04103681D
:10135400DE0782B0044636D5A1498A6802F00C0241
:10136400042A00F0DE808A6802F00C02082A00F0E9
:10137400D4809B498A6802F00C020C2A00F0048194
:101384006368B3F5803F00F01881B3F5A02F00F037
:101394009281934D2A6822F480322A602A6822F4CA
:1013A40080222A60002B40F00D8100F079FC064673
:1013B40005E000F075FC801B642800F2FA802B68BD
:1013C4009F03F6D423689D072FD5854A916811F0B1
:1013D4000C0F00F09980916801F00C01082900F0CD
:1013E4008F807F498A6802F00C020C2A00F05E812B
:1013F400E368002B00F012817A4B794E01221A60C7
:1014040000F04EFC054605E000F04AFC401B0228B3
:1014140000F2CF8033689F07F6D53368226923F042
:10142400F80343EAC203336023681A0752D45D0702
:1014340030D56B4A136C13F0805300F0998000256B
:10144400694E3368D80540F1A480A368012B00F0ED
:10145400CD80052B00F03981614E326F22F00102FC
:101464003267326F22F004023267002B40F0C380EF
:1014740000F016FC41F28838074605E000F010FC45
:10148400C01B404500F29580336F9B07F6D4002DB6
:1014940040F00681A369CBB1514DAA6802F00C0259
:1014A400082A00F0CC80022B4E4B4FF000021A6643
:1014B40000F0158100F0F4FB044604E000F0F0FBBA
:1014C400001B022875D82B689B01F7D4002002B0BA
:1014D400BDE8F0816369002B2DD0424B404E0122C0
:1014E400C3F8802E00F0DCFB054604E000F0D8FBD6
:1014F400401B02285DD8736F9B07F7D5236896E7D6
:10150400526850023FF56DAF354A1268920723D5F1
:10151400E268012A20D00120D9E74A6855027FF504
:1015240028AF2F4A126892037FF54DAF6268002AF4
:101534007FF449AFEFE72B4A294EC2F8803E00F012
:10154400AFFB054604E000F0ABFB401B022830D89B
:10155400736F9F07F7D4D1E7214920690A6822F005
:10156400F80242EAC0020A601A077FF560AFB1E7E9
:101574000193136C43F080531364136C03F0805392
:101584000193019B01255BE74A6851027FF5F8AEA0
:10159400C7E7336843F48073336000F081FB074688
:1015A4003368D9053FF551AF00F07AFBC01B022820
:1015B400F6D9032002B0BDE8F081094A136843F468
:1015C4008033136000F06CFB054E054604E000F028
:1015D40067FB401B6428ECD833689B03F7D5F1E61E
:1015E400003802400000474200700040554A136F23
:1015F40043F00103136700F053FB524F064641F2D8
:10160400883804E000F04CFB801B4045D1D83B6F88
:101614009A07F7D5002D3FF43DAF41E04A4A494EC1
:10162400136000F03DFB054604E000F039FB401B6D
:101634000228BED833689907F7D42368F5E6012B4E
:101644003FF469AF6B68E26903F4800191427FF46F
:1016540062AF226A03F03F0191427FF45CAF616A9A
:1016640047F6C0721A40B2EB811F7FF454AFA26AEE
:10167400520803F44031013AB1EB024F7FF44BAF0F
:10168400E16A03F07062B2EB016F7FF444AF226B46
:1016940003F0E043B3EB027F14BF0120002016E700
:1016A400284A136C23F080531364F3E64A6851020A
:1016B4003FF59EAE28E7234B1A6842F480221A6055
:1016C4001A6842F480321A607CE71E4B1A6F42F0AB
:1016D40004021A671A6F42F001021A678BE700F0DE
:1016E400DFFA064605E000F0DBFA801B02283FF62D
:1016F40060AF2B689901F6D4D4E90731626A0B43D1
:1017040043EA8213D4E90A20216B43EA00635208B6
:1017140043EA0173013A0C4943EA024301226B6034
:101724000A6600F0BDFA074D044605E000F0B8FA79
:10173400001B02283FF63DAF2B689A01F6D5C5E69B
:101744000120704700380240000047422DE9F04F65
:10175400A54A0B68904287B04FF0000200F0D58094
:10176400DFF888824FF0010B8A4603E00132102A29
:1017740000F087800BFA02F101EA03069943F5D1E0
:10178400DAF8044004F0030C510003250CF1FF3790
:101794008D40012F6FEA050576D9BCF1030F40F0A7
:1017A400AC8107680CFA01F13D40294314F4403F31
:1017B4000160DBD08E4D00210591696C41F48041BC
:1017C4006964696C01F480410591059922F0030173
:1017D40001F1804101F59C3102F003078D68BF00DF
:1017E4004FF00F0C0CFA07FC25EA0C05DFF804C2D5
:1017F400604500F08480DFF800C2604500F0658138
:10180400DFF8F8C1604500F06681DFF8F4C1604597
:1018140000F06781DFF8ECC1604500F06881DFF813
:10182400E8C160450CBF4FF0060C4FF0070C0CFAF2
:1018340007F73D438D60D8F80810F543E70254BF1D
:1018440029403143C8F80810D8F80C10A70254BF37
:1018540029403143C8F80C10D8F80410A70354BF2A
:1018640029403143C8F80410D8F80010E40302F109
:10187400010254BF29403143102AC8F800107FF4F4
:1018840079AF07B0BDE8F08F876807EA050EDAF88C
:101894000C708F4047EA0E078760476827EA060EF8
:1018A400C4F30017974047EA0E074760C76807EA82
:1018B400050EDAF808708F4047EA0E07BCF1020FF4
:1018C400C7607FF46EAF4FEAD20900EB890902F0DA
:1018D400070ED9F820700097DAF810704FEA8E0ED0
:1018E40007FA0EF701970F2707FA0EFE009F27EA63
:1018F4000E0E019F47EA0E07C9F8207051E74FF01A
:10190400010C0CFA07F73D4394E7DFF8E4B0374FD6
:101914004FF0010A02E00132102AB2D00AFA02F4AE
:1019240003EA04069C43F6D14D6854004FF0030CBF
:101934000CFA04FC05F003086FEA0C0908F1FF3CFB
:10194400BCF1010F62D9B8F1030F40F0E080D0F888
:1019540000C008FA04F40CEA090C44EA0C0415F477
:10196400403F0460D7D000240594DBF8444044F49D
:101974008044CBF84440DBF8444004F480440594AC
:10198400059C22F0030404F1804404F59C3402F025
:10199400030C4FF00F0E4FEA8C0C0EFA0CFCD4F82B
:1019A40008E02EEA0C0CC4F808C015F4801FBC68CB
:1019B4006FEA060C40F0878004EA0C04BC6015F45E
:1019C400001FFC687DD104EA0C04FC6015F4003FA0
:1019D4007C6874D10CEA04047C60ED033C686CD42C
:1019E4000CEA04043C6096E700000240003C01401D
:1019F400003802400004024000080240000C02408B
:101A0400001002400014024000180240D0F808E020
:101A1400D1F80CC009EA0E0E0CFA04FC4CEA0E0CC8
:101A2400C0F808C0D0F804E0C5F3001C2EEA060E86
:101A34000CFA02FC4CEA0E0CC0F804C0D0F80CE01E
:101A4400D1F808C009EA0E0E0CFA04FC4CEA0E0C9C
:101A5400B8F1020FC0F80CC07FF479AF4FEAD20C92
:101A64004FEA8C0C0CF1804C0CF5003C02F0070E94
:101A74004FEA8E0ECDF800E0DCF820E0CDF808C087
:101A8400CDF804E0D1F810C0DDF800E00CFA0EFC4B
:101A9400CDF80CC0DDF800C04FF00F0E0EFA0CFEAE
:101AA400DDF804C02CEA0E0EDDF80CC04CEA0E0E74
:101AB400DDF808C0CCF820E049E7344392E734432A
:101AC4008AE7344381E7344378E74FF0020C0CFA99
:101AD40007F73D43AEE64FF0030C0CFA07F73D431E
:101AE400A8E64FF0040C0CFA07F73D43A2E64FF0CA
:101AF400050C0CFA07F73D439CE6C76807EA050E98
:101B0400DAF808708F4047EA0E07C76049E6D1F853
:101B140008C00CFA04FEF446DFF818E0DEF80CE026
:101B240009EA0E0E4CEA0E0EDFF808C0CCF80CE001
:101B34000DE700BF0000024002B90904816170474B
:101B44000749CA6803024FF6FF0003F4E06302404A
:101B5400134343F0BF6343F40033CB60704700BFCB
:101B640000ED00E01B4BDB68C3F3022300B5C3F1B7
:101B7400070EBEF1040F03F1040C28BF4FF0040E4E
:101B8400BCF1060F1CD9A3F1030C4FF0FF3303FA89
:101B94000CF322EA03024FF0FF3303FA0EF321EAB7
:101BA400030303FA0CF313431B010028DBB20ADB23
:101BB40000F1604000F5614080F800335DF804FBFB
:101BC40000229446E7E7044A00F00F00024413762B
:101BD4005DF804FB00ED00E0FCEC00E00138B0F13E
:101BE400807F01D30120704710B44FF0E023064CEE
:101BF40058614FF0F00C84F823C0002207211046EE
:101C04009A6110BC1961704700ED00E038B50E4AC6
:101C14000E4B1278054618684FF47A73B3FBF2F34F
:101C2400B0FBF3F0FFF7DAFF08B90F2D01D901205B
:101C340038BD0446024629464FF0FF30FFF792FFB5
:101C4400034B20461D6038BD1800002020000020F2
:101C54001C00002008B50B4B1A6842F400721A608D
:101C64001A6842F480621A601A6842F480721A6038
:101C74000320FFF765FF0F20FFF7C8FFFFF752FAB5
:101C8400002008BD003C0240034A044B11681B7845
:101C94000B441360704700BF5C0000201800002054
:101CA400014B1868704700BF5C00002038B504463B
:101CB400FFF7F6FF631C054602D0044B1B781C4457
:101CC400FFF7EEFF401BA042FAD338BD18000020F6
:101CD400704700BFDFF834D0FFF7FAFF0C480D4916
:101CE4000D4A002302E0D458C4500433C4188C4273
:101CF400F9D30A4A0A4C002301E013600432A242D9
:101D0400FBD300F011F8FFF7BBF870470000022086
:101D14000000002024000020AC1D00082800002042
:101D240060000020FEE7000070B50D4D0D4C641BF3
:101D3400A4100026A64209D10B4D0C4C00F018F853
:101D4400641BA4100026A64205D170BD55F8043BBF
:101D540098470136EEE755F8043B98470136F2E719
:101D6400A41D0008A41D0008A41D0008A81D000847
:101D7400F8B500BFF8BC08BC9E467047F8B500BF74
:081D8400F8BC08BC9E46704744
:101D8C00000000000000000001020304060708091F
:081D9C0044EDFF7F010000008F
:041DA400E901000849
:041DA800C501000869
:101DAC0080000000A0000000C0000000E000000067
:101DBC000001000001000000010000001000000004
:041DCC000024F400FB
:0400000508001CD9FA
:00000001FF
